{
  "_format": "hh-sol-artifact-1",
  "contractName": "Tracking",
  "sourceName": "contracts/Tracking.sol",
  "abi": [
    {
      "inputs": [],
      "stateMutability": "nonpayable",
      "type": "constructor"
    },
    {
      "anonymous": false,
      "inputs": [
        {
          "indexed": true,
          "internalType": "address",
          "name": "sender",
          "type": "address"
        },
        {
          "indexed": true,
          "internalType": "address",
          "name": "receiver",
          "type": "address"
        },
        {
          "indexed": false,
          "internalType": "uint256",
          "name": "pickupTime",
          "type": "uint256"
        },
        {
          "indexed": false,
          "internalType": "uint256",
          "name": "distance",
          "type": "uint256"
        },
        {
          "indexed": false,
          "internalType": "uint256",
          "name": "price",
          "type": "uint256"
        }
      ],
      "name": "ShipmentCreated",
      "type": "event"
    },
    {
      "anonymous": false,
      "inputs": [
        {
          "indexed": true,
          "internalType": "address",
          "name": "sender",
          "type": "address"
        },
        {
          "indexed": true,
          "internalType": "address",
          "name": "receiver",
          "type": "address"
        },
        {
          "indexed": false,
          "internalType": "uint256",
          "name": "deliveryTime",
          "type": "uint256"
        }
      ],
      "name": "ShipmentDelivered",
      "type": "event"
    },
    {
      "anonymous": false,
      "inputs": [
        {
          "indexed": true,
          "internalType": "address",
          "name": "sender",
          "type": "address"
        },
        {
          "indexed": true,
          "internalType": "address",
          "name": "receiver",
          "type": "address"
        },
        {
          "indexed": false,
          "internalType": "uint256",
          "name": "pickupTime",
          "type": "uint256"
        }
      ],
      "name": "ShipmentInTransit",
      "type": "event"
    },
    {
      "anonymous": false,
      "inputs": [
        {
          "indexed": true,
          "internalType": "address",
          "name": "sender",
          "type": "address"
        },
        {
          "indexed": true,
          "internalType": "address",
          "name": "receiver",
          "type": "address"
        },
        {
          "indexed": false,
          "internalType": "uint256",
          "name": "amount",
          "type": "uint256"
        }
      ],
      "name": "ShipmentPaid",
      "type": "event"
    },
    {
      "inputs": [
        {
          "internalType": "address",
          "name": "_sender",
          "type": "address"
        },
        {
          "internalType": "address",
          "name": "_receiver",
          "type": "address"
        },
        {
          "internalType": "uint256",
          "name": "_index",
          "type": "uint256"
        }
      ],
      "name": "completeShipment",
      "outputs": [],
      "stateMutability": "nonpayable",
      "type": "function"
    },
    {
      "inputs": [
        {
          "internalType": "address",
          "name": "_receiver",
          "type": "address"
        },
        {
          "internalType": "uint256",
          "name": "_pickupTime",
          "type": "uint256"
        },
        {
          "internalType": "uint256",
          "name": "_distance",
          "type": "uint256"
        },
        {
          "internalType": "uint256",
          "name": "_price",
          "type": "uint256"
        },
        {
          "internalType": "string",
          "name": "_productName",
          "type": "string"
        }
      ],
      "name": "createShipment",
      "outputs": [],
      "stateMutability": "payable",
      "type": "function"
    },
    {
      "inputs": [],
      "name": "getAllTransactions",
      "outputs": [
        {
          "components": [
            {
              "internalType": "address",
              "name": "sender",
              "type": "address"
            },
            {
              "internalType": "address",
              "name": "receiver",
              "type": "address"
            },
            {
              "internalType": "uint256",
              "name": "pickupTime",
              "type": "uint256"
            },
            {
              "internalType": "uint256",
              "name": "deliveryTime",
              "type": "uint256"
            },
            {
              "internalType": "uint256",
              "name": "distance",
              "type": "uint256"
            },
            {
              "internalType": "uint256",
              "name": "price",
              "type": "uint256"
            },
            {
              "internalType": "enum Tracking.ShipmentStatus",
              "name": "status",
              "type": "uint8"
            },
            {
              "internalType": "bool",
              "name": "isPaid",
              "type": "bool"
            },
            {
              "internalType": "string",
              "name": "productName",
              "type": "string"
            }
          ],
          "internalType": "struct Tracking.TyepShipment[]",
          "name": "",
          "type": "tuple[]"
        }
      ],
      "stateMutability": "view",
      "type": "function"
    },
    {
      "inputs": [
        {
          "internalType": "address",
          "name": "_sender",
          "type": "address"
        },
        {
          "internalType": "uint256",
          "name": "_index",
          "type": "uint256"
        }
      ],
      "name": "getShipment",
      "outputs": [
        {
          "internalType": "address",
          "name": "",
          "type": "address"
        },
        {
          "internalType": "address",
          "name": "",
          "type": "address"
        },
        {
          "internalType": "uint256",
          "name": "",
          "type": "uint256"
        },
        {
          "internalType": "uint256",
          "name": "",
          "type": "uint256"
        },
        {
          "internalType": "uint256",
          "name": "",
          "type": "uint256"
        },
        {
          "internalType": "uint256",
          "name": "",
          "type": "uint256"
        },
        {
          "internalType": "enum Tracking.ShipmentStatus",
          "name": "",
          "type": "uint8"
        },
        {
          "internalType": "bool",
          "name": "",
          "type": "bool"
        }
      ],
      "stateMutability": "view",
      "type": "function"
    },
    {
      "inputs": [
        {
          "internalType": "address",
          "name": "_sender",
          "type": "address"
        }
      ],
      "name": "getShipmentsCount",
      "outputs": [
        {
          "internalType": "uint256",
          "name": "",
          "type": "uint256"
        }
      ],
      "stateMutability": "view",
      "type": "function"
    },
    {
      "inputs": [],
      "name": "shipmentCount",
      "outputs": [
        {
          "internalType": "uint256",
          "name": "",
          "type": "uint256"
        }
      ],
      "stateMutability": "view",
      "type": "function"
    },
    {
      "inputs": [
        {
          "internalType": "address",
          "name": "",
          "type": "address"
        },
        {
          "internalType": "uint256",
          "name": "",
          "type": "uint256"
        }
      ],
      "name": "shipments",
      "outputs": [
        {
          "internalType": "address",
          "name": "sender",
          "type": "address"
        },
        {
          "internalType": "address",
          "name": "receiver",
          "type": "address"
        },
        {
          "internalType": "uint256",
          "name": "pickupTime",
          "type": "uint256"
        },
        {
          "internalType": "uint256",
          "name": "deliveryTime",
          "type": "uint256"
        },
        {
          "internalType": "uint256",
          "name": "distance",
          "type": "uint256"
        },
        {
          "internalType": "uint256",
          "name": "price",
          "type": "uint256"
        },
        {
          "internalType": "enum Tracking.ShipmentStatus",
          "name": "status",
          "type": "uint8"
        },
        {
          "internalType": "bool",
          "name": "isPaid",
          "type": "bool"
        },
        {
          "internalType": "string",
          "name": "productName",
          "type": "string"
        }
      ],
      "stateMutability": "view",
      "type": "function"
    },
    {
      "inputs": [
        {
          "internalType": "address",
          "name": "_sender",
          "type": "address"
        },
        {
          "internalType": "address",
          "name": "_receiver",
          "type": "address"
        },
        {
          "internalType": "uint256",
          "name": "_index",
          "type": "uint256"
        }
      ],
      "name": "startShipment",
      "outputs": [],
      "stateMutability": "nonpayable",
      "type": "function"
    }
  ],
  "bytecode": "0x608060405234801561001057600080fd5b506000600181905550612119806100286000396000f3fe60806040526004361061007b5760003560e01c80635667e02f1161004e5780635667e02f1461012d5780637ff5265d146101725780638365da541461019b578063aace20b7146101df5761007b565b8063179a878c1461008057806327506f53146100a957806341fdc195146100d457806342b20e8914610111575b600080fd5b34801561008c57600080fd5b506100a760048036038101906100a291906113be565b61020a565b005b3480156100b557600080fd5b506100be6105de565b6040516100cb91906116d8565b60405180910390f35b3480156100e057600080fd5b506100fb60048036038101906100f691906116fa565b6107fa565b6040516101089190611736565b60405180910390f35b61012b60048036038101906101269190611886565b610845565b005b34801561013957600080fd5b50610154600480360381019061014f919061191d565b610ceb565b604051610169999897969594939291906119d4565b60405180910390f35b34801561017e57600080fd5b50610199600480360381019061019491906113be565b610e38565b005b3480156101a757600080fd5b506101c260048036038101906101bd919061191d565b611094565b6040516101d6989796959493929190611a68565b60405180910390f35b3480156101eb57600080fd5b506101f4611310565b6040516102019190611736565b60405180910390f35b60008060008573ffffffffffffffffffffffffffffffffffffffff1673ffffffffffffffffffffffffffffffffffffffff168152602001908152602001600020828154811061025c5761025b611ae6565b5b9060005260206000209060080201905060006002838154811061028257610281611ae6565b5b906000526020600020906008020190508373ffffffffffffffffffffffffffffffffffffffff168260010160009054906101000a900473ffffffffffffffffffffffffffffffffffffffff1673ffffffffffffffffffffffffffffffffffffffff1614610324576040517f08c379a000000000000000000000000000000000000000000000000000000000815260040161031b90611b61565b60405180910390fd5b600160028111156103385761033761145b565b5b8260060160009054906101000a900460ff16600281111561035c5761035b61145b565b5b1461039c576040517f08c379a000000000000000000000000000000000000000000000000000000000815260040161039390611bcd565b60405180910390fd5b8160060160019054906101000a900460ff16156103ee576040517f08c379a00000000000000000000000000000000000000000000000000000000081526004016103e590611c39565b60405180910390fd5b60028260060160006101000a81548160ff021916908360028111156104165761041561145b565b5b021790555060028160060160006101000a81548160ff021916908360028111156104435761044261145b565b5b02179055504281600301819055504282600301819055506000826005015490508260000160009054906101000a900473ffffffffffffffffffffffffffffffffffffffff1673ffffffffffffffffffffffffffffffffffffffff166108fc829081150290604051600060405180830381858888f193505050501580156104cd573d6000803e3d6000fd5b5060018360060160016101000a81548160ff02191690831515021790555060018260060160016101000a81548160ff0219169083151502179055508473ffffffffffffffffffffffffffffffffffffffff168673ffffffffffffffffffffffffffffffffffffffff167f3746ccceb54f44c9b0ee0120e596168d07ec9f6ca303cfdd9810d3b2e2686a2e85600301546040516105699190611736565b60405180910390a38473ffffffffffffffffffffffffffffffffffffffff168673ffffffffffffffffffffffffffffffffffffffff167f2b6f2473aebafaf8d0889669490135928ec4454d2e29a103fd39693bbca6aef1836040516105ce9190611736565b60405180910390a3505050505050565b60606002805480602002602001604051908101604052809291908181526020016000905b828210156107f15783829060005260206000209060080201604051806101200160405290816000820160009054906101000a900473ffffffffffffffffffffffffffffffffffffffff1673ffffffffffffffffffffffffffffffffffffffff1673ffffffffffffffffffffffffffffffffffffffff1681526020016001820160009054906101000a900473ffffffffffffffffffffffffffffffffffffffff1673ffffffffffffffffffffffffffffffffffffffff1673ffffffffffffffffffffffffffffffffffffffff168152602001600282015481526020016003820154815260200160048201548152602001600582015481526020016006820160009054906101000a900460ff16600281111561071f5761071e61145b565b5b60028111156107315761073061145b565b5b81526020016006820160019054906101000a900460ff1615151515815260200160078201805461076090611c88565b80601f016020809104026020016040519081016040528092919081815260200182805461078c90611c88565b80156107d95780601f106107ae576101008083540402835291602001916107d9565b820191906000526020600020905b8154815290600101906020018083116107bc57829003601f168201915b50505050508152505081526020019060010190610602565b50505050905090565b60008060008373ffffffffffffffffffffffffffffffffffffffff1673ffffffffffffffffffffffffffffffffffffffff168152602001908152602001600020805490509050919050565b813414610887576040517f08c379a000000000000000000000000000000000000000000000000000000000815260040161087e90611d2b565b60405180910390fd5b60006040518061012001604052803373ffffffffffffffffffffffffffffffffffffffff1681526020018773ffffffffffffffffffffffffffffffffffffffff16815260200186815260200160008152602001858152602001848152602001600060028111156108fa576108f961145b565b5b81526020016000151581526020018381525090506000803373ffffffffffffffffffffffffffffffffffffffff1673ffffffffffffffffffffffffffffffffffffffff16815260200190815260200160002081908060018154018082558091505060019003906000526020600020906008020160009091909190915060008201518160000160006101000a81548173ffffffffffffffffffffffffffffffffffffffff021916908373ffffffffffffffffffffffffffffffffffffffff16021790555060208201518160010160006101000a81548173ffffffffffffffffffffffffffffffffffffffff021916908373ffffffffffffffffffffffffffffffffffffffff16021790555060408201518160020155606082015181600301556080820151816004015560a0820151816005015560c08201518160060160006101000a81548160ff02191690836002811115610a5757610a5661145b565b5b021790555060e08201518160060160016101000a81548160ff021916908315150217905550610100820151816007019081610a929190611ef7565b50505060016000815480929190610aa890611ff8565b919050555060026040518061012001604052803373ffffffffffffffffffffffffffffffffffffffff1681526020018873ffffffffffffffffffffffffffffffffffffffff1681526020018781526020016000815260200186815260200185815260200160006002811115610b2057610b1f61145b565b5b815260200160001515815260200184815250908060018154018082558091505060019003906000526020600020906008020160009091909190915060008201518160000160006101000a81548173ffffffffffffffffffffffffffffffffffffffff021916908373ffffffffffffffffffffffffffffffffffffffff16021790555060208201518160010160006101000a81548173ffffffffffffffffffffffffffffffffffffffff021916908373ffffffffffffffffffffffffffffffffffffffff16021790555060408201518160020155606082015181600301556080820151816004015560a0820151816005015560c08201518160060160006101000a81548160ff02191690836002811115610c3c57610c3b61145b565b5b021790555060e08201518160060160016101000a81548160ff021916908315150217905550610100820151816007019081610c779190611ef7565b5050508573ffffffffffffffffffffffffffffffffffffffff163373ffffffffffffffffffffffffffffffffffffffff167f5001b34ecf2db5b7bbeddcbbe761ec9ecadcc7638018b98ce3e24995b0e946b6878787604051610cdb93929190612040565b60405180910390a3505050505050565b60006020528160005260406000208181548110610d0757600080fd5b9060005260206000209060080201600091509150508060000160009054906101000a900473ffffffffffffffffffffffffffffffffffffffff16908060010160009054906101000a900473ffffffffffffffffffffffffffffffffffffffff16908060020154908060030154908060040154908060050154908060060160009054906101000a900460ff16908060060160019054906101000a900460ff1690806007018054610db590611c88565b80601f0160208091040260200160405190810160405280929190818152602001828054610de190611c88565b8015610e2e5780601f10610e0357610100808354040283529160200191610e2e565b820191906000526020600020905b815481529060010190602001808311610e1157829003601f168201915b5050505050905089565b60008060008573ffffffffffffffffffffffffffffffffffffffff1673ffffffffffffffffffffffffffffffffffffffff1681526020019081526020016000208281548110610e8a57610e89611ae6565b5b90600052602060002090600802019050600060028381548110610eb057610eaf611ae6565b5b906000526020600020906008020190508373ffffffffffffffffffffffffffffffffffffffff168260010160009054906101000a900473ffffffffffffffffffffffffffffffffffffffff1673ffffffffffffffffffffffffffffffffffffffff1614610f52576040517f08c379a0000000000000000000000000000000000000000000000000000000008152600401610f4990611b61565b60405180910390fd5b60006002811115610f6657610f6561145b565b5b8260060160009054906101000a900460ff166002811115610f8a57610f8961145b565b5b14610fca576040517f08c379a0000000000000000000000000000000000000000000000000000000008152600401610fc1906120c3565b60405180910390fd5b60018260060160006101000a81548160ff02191690836002811115610ff257610ff161145b565b5b021790555060018160060160006101000a81548160ff0219169083600281111561101f5761101e61145b565b5b02179055508373ffffffffffffffffffffffffffffffffffffffff168573ffffffffffffffffffffffffffffffffffffffff167faafab9f94340179ff9cefd29621e1772a4b8efab8023163838f1b0a8f6ce5df584600201546040516110859190611736565b60405180910390a35050505050565b60008060008060008060008060008060008c73ffffffffffffffffffffffffffffffffffffffff1673ffffffffffffffffffffffffffffffffffffffff1681526020019081526020016000208a815481106110f2576110f1611ae6565b5b9060005260206000209060080201604051806101200160405290816000820160009054906101000a900473ffffffffffffffffffffffffffffffffffffffff1673ffffffffffffffffffffffffffffffffffffffff1673ffffffffffffffffffffffffffffffffffffffff1681526020016001820160009054906101000a900473ffffffffffffffffffffffffffffffffffffffff1673ffffffffffffffffffffffffffffffffffffffff1673ffffffffffffffffffffffffffffffffffffffff168152602001600282015481526020016003820154815260200160048201548152602001600582015481526020016006820160009054906101000a900460ff1660028111156112055761120461145b565b5b60028111156112175761121661145b565b5b81526020016006820160019054906101000a900460ff1615151515815260200160078201805461124690611c88565b80601f016020809104026020016040519081016040528092919081815260200182805461127290611c88565b80156112bf5780601f10611294576101008083540402835291602001916112bf565b820191906000526020600020905b8154815290600101906020018083116112a257829003601f168201915b5050505050815250509050806000015181602001518260400151836060015184608001518560a001518660c001518760e0015198509850985098509850985098509850509295985092959890939650565b60015481565b6000604051905090565b600080fd5b600080fd5b600073ffffffffffffffffffffffffffffffffffffffff82169050919050565b60006113558261132a565b9050919050565b6113658161134a565b811461137057600080fd5b50565b6000813590506113828161135c565b92915050565b6000819050919050565b61139b81611388565b81146113a657600080fd5b50565b6000813590506113b881611392565b92915050565b6000806000606084860312156113d7576113d6611320565b5b60006113e586828701611373565b93505060206113f686828701611373565b9250506040611407868287016113a9565b9150509250925092565b600081519050919050565b600082825260208201905092915050565b6000819050602082019050919050565b6114468161134a565b82525050565b61145581611388565b82525050565b7f4e487b7100000000000000000000000000000000000000000000000000000000600052602160045260246000fd5b6003811061149b5761149a61145b565b5b50565b60008190506114ac8261148a565b919050565b60006114bc8261149e565b9050919050565b6114cc816114b1565b82525050565b60008115159050919050565b6114e7816114d2565b82525050565b600081519050919050565b600082825260208201905092915050565b60005b8381101561152757808201518184015260208101905061150c565b60008484015250505050565b6000601f19601f8301169050919050565b600061154f826114ed565b61155981856114f8565b9350611569818560208601611509565b61157281611533565b840191505092915050565b600061012083016000830151611596600086018261143d565b5060208301516115a9602086018261143d565b5060408301516115bc604086018261144c565b5060608301516115cf606086018261144c565b5060808301516115e2608086018261144c565b5060a08301516115f560a086018261144c565b5060c083015161160860c08601826114c3565b5060e083015161161b60e08601826114de565b506101008301518482036101008601526116358282611544565b9150508091505092915050565b600061164e838361157d565b905092915050565b6000602082019050919050565b600061166e82611411565b611678818561141c565b93508360208202850161168a8561142d565b8060005b858110156116c657848403895281516116a78582611642565b94506116b283611656565b925060208a0199505060018101905061168e565b50829750879550505050505092915050565b600060208201905081810360008301526116f28184611663565b905092915050565b6000602082840312156117105761170f611320565b5b600061171e84828501611373565b91505092915050565b61173081611388565b82525050565b600060208201905061174b6000830184611727565b92915050565b600080fd5b600080fd5b7f4e487b7100000000000000000000000000000000000000000000000000000000600052604160045260246000fd5b61179382611533565b810181811067ffffffffffffffff821117156117b2576117b161175b565b5b80604052505050565b60006117c5611316565b90506117d1828261178a565b919050565b600067ffffffffffffffff8211156117f1576117f061175b565b5b6117fa82611533565b9050602081019050919050565b82818337600083830152505050565b6000611829611824846117d6565b6117bb565b90508281526020810184848401111561184557611844611756565b5b611850848285611807565b509392505050565b600082601f83011261186d5761186c611751565b5b813561187d848260208601611816565b91505092915050565b600080600080600060a086880312156118a2576118a1611320565b5b60006118b088828901611373565b95505060206118c1888289016113a9565b94505060406118d2888289016113a9565b93505060606118e3888289016113a9565b925050608086013567ffffffffffffffff81111561190457611903611325565b5b61191088828901611858565b9150509295509295909350565b6000806040838503121561193457611933611320565b5b600061194285828601611373565b9250506020611953858286016113a9565b9150509250929050565b6119668161134a565b82525050565b611975816114b1565b82525050565b611984816114d2565b82525050565b600082825260208201905092915050565b60006119a6826114ed565b6119b0818561198a565b93506119c0818560208601611509565b6119c981611533565b840191505092915050565b6000610120820190506119ea600083018c61195d565b6119f7602083018b61195d565b611a04604083018a611727565b611a116060830189611727565b611a1e6080830188611727565b611a2b60a0830187611727565b611a3860c083018661196c565b611a4560e083018561197b565b818103610100830152611a58818461199b565b90509a9950505050505050505050565b600061010082019050611a7e600083018b61195d565b611a8b602083018a61195d565b611a986040830189611727565b611aa56060830188611727565b611ab26080830187611727565b611abf60a0830186611727565b611acc60c083018561196c565b611ad960e083018461197b565b9998505050505050505050565b7f4e487b7100000000000000000000000000000000000000000000000000000000600052603260045260246000fd5b7f496e76616c69642072656365697665722e000000000000000000000000000000600082015250565b6000611b4b60118361198a565b9150611b5682611b15565b602082019050919050565b60006020820190508181036000830152611b7a81611b3e565b9050919050565b7f536869706d656e74206e6f7420696e207472616e7369742e0000000000000000600082015250565b6000611bb760188361198a565b9150611bc282611b81565b602082019050919050565b60006020820190508181036000830152611be681611baa565b9050919050565b7f536869706d656e7420616c726561647920706169642e00000000000000000000600082015250565b6000611c2360168361198a565b9150611c2e82611bed565b602082019050919050565b60006020820190508181036000830152611c5281611c16565b9050919050565b7f4e487b7100000000000000000000000000000000000000000000000000000000600052602260045260246000fd5b60006002820490506001821680611ca057607f821691505b602082108103611cb357611cb2611c59565b5b50919050565b7f5061796d656e7420616d6f756e74206d757374206d617463682074686520707260008201527f6963652e00000000000000000000000000000000000000000000000000000000602082015250565b6000611d1560248361198a565b9150611d2082611cb9565b604082019050919050565b60006020820190508181036000830152611d4481611d08565b9050919050565b60008190508160005260206000209050919050565b60006020601f8301049050919050565b600082821b905092915050565b600060088302611dad7fffffffffffffffffffffffffffffffffffffffffffffffffffffffffffffffff82611d70565b611db78683611d70565b95508019841693508086168417925050509392505050565b6000819050919050565b6000611df4611def611dea84611388565b611dcf565b611388565b9050919050565b6000819050919050565b611e0e83611dd9565b611e22611e1a82611dfb565b848454611d7d565b825550505050565b600090565b611e37611e2a565b611e42818484611e05565b505050565b5b81811015611e6657611e5b600082611e2f565b600181019050611e48565b5050565b601f821115611eab57611e7c81611d4b565b611e8584611d60565b81016020851015611e94578190505b611ea8611ea085611d60565b830182611e47565b50505b505050565b600082821c905092915050565b6000611ece60001984600802611eb0565b1980831691505092915050565b6000611ee78383611ebd565b9150826002028217905092915050565b611f00826114ed565b67ffffffffffffffff811115611f1957611f1861175b565b5b611f238254611c88565b611f2e828285611e6a565b600060209050601f831160018114611f615760008415611f4f578287015190505b611f598582611edb565b865550611fc1565b601f198416611f6f86611d4b565b60005b82811015611f9757848901518255600182019150602085019450602081019050611f72565b86831015611fb45784890151611fb0601f891682611ebd565b8355505b6001600288020188555050505b505050505050565b7f4e487b7100000000000000000000000000000000000000000000000000000000600052601160045260246000fd5b600061200382611388565b91507fffffffffffffffffffffffffffffffffffffffffffffffffffffffffffffffff820361203557612034611fc9565b5b600182019050919050565b60006060820190506120556000830186611727565b6120626020830185611727565b61206f6040830184611727565b949350505050565b7f536869706d656e7420616c726561647920696e207472616e7369742e00000000600082015250565b60006120ad601c8361198a565b91506120b882612077565b602082019050919050565b600060208201905081810360008301526120dc816120a0565b905091905056fea26469706673582212209dee83d34bc8bfcfa1e68210c521dcbdefd754468044b854724352d4f6b9efff64736f6c63430008120033",
  "linkReferences": {},
  "deployedLinkReferences": {}
}